:1000000015C02FC02EC02DC0C9C02BC02AC029C00A
:1000100028C027C026C025C024C023C022C0003865
:1000200001010101010101020408102011241FBE79
:10003000CFE5D2E0DEBFCDBF10E0A0E6B0E0E8EB58
:10004000F3E002C005900D92A63BB107D9F720E07E
:10005000A6EBB0E001C01D92A33DB207E1F7E8D0E6
:10006000A9C1CECFE7E2F0E09491E1E2F0E0E491C3
:10007000EE2391F02AB52F7C2ABDF0E0E25EFF4F1F
:10008000A491B0E0811109C08FB7F8942C91E92FA9
:10009000E095E223EC938FBF08958FB7F894EC912D
:1000A000E92BF8CF3FB7F8948091BB009091BC004A
:1000B000A091BD00B091BE002FB508B602FE05C0EC
:1000C0002F3F19F00196A11DB11D3FBFBA2FA92FD7
:1000D000982F8827BC01CD01620F711D811D911DD4
:1000E00042E0660F771F881F991F4A95D1F7089540
:1000F000CF92DF92EF92FF92CF93DF93D3DFEB01AA
:1001000084E6C82ED12CE12CF12CCCDF6C1B7D0BAE
:10011000683E7340D0F381E0C81AD108E108F108C5
:10012000C851DC4FC114D104E104F10471F7DF912F
:10013000CF91FF90EF90DF90CF900895C29AC29B2D
:10014000FECF8AE18A95F1F700C0C09885E18A95D3
:10015000F1F70000C298C09A779905C083E08093B8
:10016000BF0080E0089581E008958EB98BE29AE1A6
:100170009A95F1F700C08DB9B29BFECF95E19A95A3
:10018000F1F700008DB9769BF2CF8AE18A95F1F7FD
:1001900000C08FB19FEF9FB9B89A08951F920F9238
:1001A0000FB60F9211242F933F938F939F93AF938A
:1001B000BF938091B7009091B800A091B900B09121
:1001C000BA003091B60023E0230F2D3768F126E8FE
:1001D000230F0296A11DB11D2093B6008093B70096
:1001E0009093B800A093B900B093BA008091BB007F
:1001F0009091BC00A091BD00B091BE000196A11DE0
:10020000B11D8093BB009093BC00A093BD00B09340
:10021000BE00BF91AF919F918F913F912F910F9011
:100220000FBE0F901F9018950196A11DB11DD4CF40
:1002300081E2E1E0F0E080935700849181BF7894FF
:1002400080B7806880BF80B7806480BF8CB58064D1
:100250008CBD9FEF9DBD80B7807F876080BF89B7D1
:10026000846089BF83B7887F83BF8AB58C7F8160B4
:100270008ABD83B7877F83BF83B7887F836083BF4F
:1002800086B1876086B9379AC09AC29ABA9AB89AE4
:100290009FB98AE28DB980EF8EB900E610E020ECBC
:1002A000A22E32E0E32E43E0942E88248A9454E078
:1002B000752EBB24B3946AE0662EF801818190818B
:1002C000A092C0009093C100E092D2008093C2003F
:1002D0009092BF0033DF8823E9F093E0F92EC0EC61
:1002E000D0E06E01FFEFCF1ADF0A8091BF0083706C
:1002F00009F44EC0C29888818FB980EF36DFB89874
:100300008EEF33DF9091BF0080FF16C090FF11C0C9
:10031000B092BF001092D2000E5F1F4F80E0063BEC
:10032000180759F680E09EDEE3DE81E09BDEE0DE2A
:10033000F9CFE092BF00EECF892F8570843069F449
:100340008091C00081608093C000B092BF00F6DE53
:1003500081112BC06092BF00DDCF9E7F9093BF00C4
:10036000E601FA94F110BDCF1092D200C098C29A63
:10037000B29BFECFE5E1EA95F1F70000C09AFAE101
:10038000FA95F1F700C07599C7CF7092BF00C4CF3E
:10039000B89880EFEADE888381E0F81204C08FB855
:1003A0008EEFE3DEDDCF1FB8FBCF83E0F82EC0EC8D
:0803B000D0E0D7CFF894FFCF95
:1003B80002530300042007000F00100F118C128C49
:1003C800138C148C158C168C178C1AEB1BC21C0002
:1003D8001D0F1EF21FB62004211C2A002B012C0021
:1003E8002D7C2E802F00300031005A005B009500D4
:1003F80096009700980099009A009B00A200A3001D
:06040800A400A500B7925C
:00000001FF
