:1000000015C02FC02EC02DC0CAC02BC02AC029C009
:1000100028C027C026C025C024C023C022C0003865
:1000200001010101010101020408102011241FBE79
:10003000CFE5D2E0DEBFCDBF10E0A0E6B0E0EAEB56
:10004000F3E002C005900D92AA3DB107D9F720E078
:10005000AAEDB0E001C01D92A73FB207E1F7E9D0D9
:10006000AAC1CECFE7E2F0E09491E1E2F0E0E491C2
:10007000EE2391F02AB52F7C2ABDF0E0E25EFF4F1F
:10008000A491B0E0811109C08FB7F8942C91E92FA9
:10009000E095E223EC938FBF08958FB7F894EC912D
:1000A000E92BF8CF3FB7F8948091DF009091E00002
:1000B000A091E100B091E2002FB508B602FE05C0A4
:1000C0002F3F19F00196A11DB11D3FBFBA2FA92FD7
:1000D000982F8827BC01CD01620F711D811D911DD4
:1000E00042E0660F771F881F991F4A95D1F7089540
:1000F000CF92DF92EF92FF92CF93DF93D3DFEB01AA
:1001000084EFC82EDD24D394E12CF12CCBDF6C1BC3
:100110007D0B683E7340D0F381E0C81AD108E10836
:10012000F108C851DC4FC114D104E104F10471F7A6
:10013000DF91CF91FF90EF90DF90CF900895C29A1A
:10014000C29BFECF8AE18A95F1F700C0C09885E195
:100150008A95F1F70000C298C09A779905C083E0AC
:100160008093E30080E0089581E008958EB98BE2EA
:100170009AE19A95F1F700C08DB9B29BFECF95E157
:100180009A95F1F700008DB9769BF2CF8AE18A95B6
:10019000F1F700C08FB19FEF9FB9B89A08951F92F1
:1001A0000F920FB60F9211242F933F938F939F932B
:1001B000AF93BF938091DB009091DC00A091DD00B4
:1001C000B091DE003091DA0023E0230F2D3768F183
:1001D00026E8230F0296A11DB11D2093DA0080931B
:1001E000DB009093DC00A093DD00B093DE008091F3
:1001F000DF009091E000A091E100B091E200019653
:10020000A11DB11D8093DF009093E000A093E10059
:10021000B093E200BF91AF919F918F913F912F9149
:100220000F900FBE0F901F9018950196A11DB11D44
:10023000D4CF81E2E1E0F0E080935700849181BF68
:10024000789480B7806880BF80B7806480BF8CB5A9
:1002500080648CBD9FEF9DBD80B7807F876080BF2D
:1002600089B7846089BF83B7887F83BF8AB58C7F55
:1002700081608ABD83B7877F83BF83B7887F8360B0
:1002800083BF86B1876086B9379AC09AC29ABA9AF4
:10029000B89A9FB98AE28DB980EF8EB900E610E076
:1002A00020ECA22E32E0E32E43E0942E88248A94A0
:1002B00054E0752EBB24B3946AE0662EF801818168
:1002C0009081A092E4009093E500E092F600809384
:1002D000E6009092E30033DF8823E9F093E0F92E03
:1002E000C4EED0E06E01FFEFCF1ADF0A8091E30089
:1002F000837009F44EC0C29888818FB980EF36DFD1
:10030000B8988EEF33DF9091E30080FF16C090FF26
:1003100011C0B092E3001092F6000E5F1F4F80E014
:100320000A3D180759F680E09DDEE2DE81E09ADEA4
:10033000DFDEF9CFE092E300EECF892F85708430C5
:1003400069F48091E40081608093E400B092E3005E
:10035000F6DE81112BC06092E300DDCF9E7F90938B
:10036000E300E601FA94F110BDCF1092F600C098B8
:10037000C29AB29BFECFE5E1EA95F1F70000C09A80
:10038000FAE1FA95F1F700C07599C7CF7092E300D2
:10039000C4CFB89880EFEADE888381E0F81204C009
:1003A0008FB88EEFE3DEDDCF1FB8FBCF83E0F82EF2
:0A03B000C4EED0E0D7CFF894FFCFE1
:1003BA0002530300042007000F00100F110F120F41
:1003CA00138C148C158C168C178C1AC31B501C009A
:1003DA001D0F1E4A1F00206621602AB12BA12C0086
:1003EA002D772EE02F00300031A032003301340087
:1003FA00355F36803700380039003AEC3B8B3C00D9
:10040A003D763EC33FA140A9411F5A005B009500BB
:10041A0096009700980099009A009B00A200A300FA
:0A042A00A400A500A600A700B792E9
:00000001FF
